:020000040800F2
:101C0000D01C0020811D0008C9870008C16600089B
:101C100000000000000000000000000000000000C4
:101C2000000000000000000000000000E19E00082D
:101C300000000000000000008988000825BA0008A4
:101C4000931D0008931D00084D8D0008931D00088A
:101C5000931D0008795F0008AD5F0008C15F0008B0
:101C6000931D0008931D0008931D0008931D000894
:101C7000931D0008931D0008931D0008931D000884
:101C8000931D0008931D000800000000931D00082C
:101C9000931D0008931D0008F1BD0008931D000866
:101CA000931D0008931D0008931D000831BF000814
:101CB00065BF000800000000931D00080000000040
:101CC00000F002F800F030F80CA030C808382418F2
:101CD0002D18A246671EAB4654465D46AC4201D164
:101CE00000F022F87E460F3E0FCCB6460126334266
:101CF00000D0FB1AA246AB463343184788B4000015
:101D0000A8B400000023002400250026103A01D3C7
:101D100078C1FBD8520700D330C100D50B607047A3
:101D20001FB51FBD10B510BD00F0BFFE1146FFF777
:101D3000F7FF0AF05BFC00F0D7FE03B4FFF7F2FFF9
:101D400003BC00F0DDFE000070B505460C461646EB
:101D500002E00FCC0FC5103E102EFAD2082E02D38F
:101D600003CC03C5083E042E07D301CC01C5361FA2
:101D700003E021782970641C6D1C761EF9D270BDB9
:101D80000748804707480047FEE7FEE7FEE7FEE713
:101D9000FEE7FEE704480549054A064B7047000088
:101DA00071BA0008C11C0008D00E0020D01C002011
:101DB000D0100020D0100020F8B5042A2CD38307BF
:101DC00012D00B78491C0370401C521E83070BD0A5
:101DD0000B78491C0370401C521E830704D00B78FB
:101DE000491C0370401C521E8B079B0F05D0C91A5B
:101DF000DF002023DE1B08C90AE0FFF7A5FFF8BDBE
:101E00001D4608C9FD401C46B4402C4310C0121F9B
:101E1000042AF5D2F308C91A521EF0D40B78491CD3
:101E20000370401C521EEAD40B78491C0370401CFE
:101E3000012AE4D409780170F8BD01E004C0091F4B
:101E40000429FBD28B0701D50280801CC90700D072
:101E50000270704700290BD0C30702D00270401CEB
:101E6000491E022904D3830702D50280801C891EE3
:101E7000E3E70022EEE70022DFE7002203098B42BE
:101E80002CD3030A8B4211D300239C464EE0034619
:101E90000B433CD4002243088B4231D303098B42CD
:101EA0001CD3030A8B4201D394463FE0C3098B4203
:101EB00001D3CB01C01A524183098B4201D38B015C
:101EC000C01A524143098B4201D34B01C01A5241FF
:101ED00003098B4201D30B01C01A5241C3088B4244
:101EE00001D3CB00C01A524183088B4201D38B002F
:101EF000C01A524143088B4201D34B00C01A5241D1
:101F0000411A00D201465241104670475DE0CA0FA7
:101F100000D04942031000D34042534000229C4667
:101F200003098B422DD3030A8B4212D3FC22890171
:101F300012BA030A8B420CD3890192118B4208D347
:101F4000890192118B4204D389013AD0921100E0A9
:101F50008909C3098B4201D3CB01C01A52418309BD
:101F60008B4201D38B01C01A524143098B4201D3EA
:101F70004B01C01A524103098B4201D30B01C01A15
:101F80005241C3088B4201D3CB00C01A524183088F
:101F90008B4201D38B00C01A5241D9D243088B42E5
:101FA00001D34B00C01A5241411A00D20146634688
:101FB00052415B10104601D34042002B00D54942EC
:101FC000704763465B1000D3404201B50020C04615
:101FD000C04602BD70477047704700000246C80FF8
:101FE000C00781434B0030B54B405B009B0D20D0B8
:101FF0001923DB06C91801231B05994220DB0324A2
:10200000A40704251346AB400BD3002B04D1EB06E9
:1020100013409B00E34204D40124640700231219F7
:102020005941FF231B0599420BD2C9000143500FB0
:1020300009E0CB0204D501430803024305D005485B
:1020400030BDFF21C905084330BD084607210905F9
:10205000884330BD0000C07FF0B50C46871A9C4114
:102060000D46861A9D4103D2C01BA141D21963417E
:102070000D0D1F0DC94EEC1BAE435CD07F057F0DCF
:102080000026002F51D02D05AC46A943DD020123C7
:10209000ED0A1B051D4320231B1B24D41746E740D4
:1020A000381871412F46E740CC199D402818314619
:1020B00061410C0D27D161449A4013D50023401C87
:1020C000594152000ED14008400001224B005205F8
:1020D000D34207D305204007C14201D5B04900E0F3
:1020E000B0493046F0BD6B00002A00D001229A189A
:1020F0001F23203C1B1B01D5002302E0E5402818CC
:1021000071410C0DD7D0012424050919C407CD074E
:1021100040084908E40F28436144002CD5D000242E
:10212000401C61419A40D0D1CDE76A05520DD9D10A
:10213000C90FC907D5E79C4D4E00002801D00124E6
:1021400000E0002434195F00002A01D0012600E0DD
:102150000026BE19954FAC420CD8AE420AD8B44204
:1021600006D001256D05EC42BCD010461946F0BDE5
:102170009942FCD000203946F0BDF0B51FB40C46A2
:102180000F46811A9F412546861A9D4106D2012598
:10219000ED076F40401ABC4152187B41210D1E0DC6
:1021A0008D1BAC467D4D8D437ED075056D0D7CD06D
:1021B0000D05AE46AC431B031B0B794D52429D41AE
:1021C000202366469B1B14D31746F7403818002679
:1021D0000090744160462F460741E41900989D40E5
:1021E0002818664116D4714671189A4025D50123E6
:1021F00020E093182A466A415200002B00D0521C5E
:102200001E23203E9B1B002B61DD3541EE17281855
:102210006641E8D5001876415B1C9A4000D3401C0B
:102220004B05F3181524E34010D3002B52D0714610
:102230007118D30FC01802D3491C05B0F0BD01239B
:10224000DB079A42F9D140084000F6E70122520527
:10225000B21801D1002853D00123CC0ADB029943E4
:10226000891E002A08D1020C03D0020C0004103988
:1022700002E00246002020390023550B05D112024E
:102280000823550B01D152010D23550C01D1120128
:102290001B1DD50C01D192009B1C150D01D15200C4
:1022A0005B1C2025EE1A01E02CE022E00546F540FB
:1022B00015439840CA1AE10769181305C918002A7E
:1022C000BBDA032040070818C10FC9070FE07146A9
:1022D0006118B2E7F10740080843711071444A00E1
:1022E0000CD001235B059A42A7D2C90FC907002071
:1022F000A3E74905490D26D1002001E00028F4D1CB
:1023000000219AE7284D6600002801D0012100E055
:10231000002171185F00002A01D0012600E000268C
:10232000BE19224FA94210D8AE420ED8B14208D0F1
:1023300001256D05E94206D01946A8024140104624
:102340007BE79C4201D0214677E70020394674E7BD
:1023500010B50C465C4005D50124E4076340FFF747
:102360000CFF10BDFFF778FE10BD30B40C465C408A
:1023700004D50124E407634030BC6DE630BCFCE6C4
:1023800070B50124E40761400D465D4002D4FFF7BB
:1023900063FE70BD6340FFF7F0FE70BDFF070000F5
:1023A0000000F0FF0000F07F0000E0FF0000F87F79
:1023B000F0B5F94D0C091E092C402E402F468BB06C
:1023C000A7437DD0B543FCD0002E7AD0002CFCD0A2
:1023D0000D465D40ED0F2543AC1BFF25AD04641990
:1023E0000894C502440DC9022143500DDC02044388
:1023F0000120C00701430443D2020191200C110CBB
:1024000000958C46010423468B430A9161460904DA
:10241000E24D8A430991010A7D44491980390978BE
:1024200005464D4301266D18F605751B6943C90C19
:10243000640B891C4C436418B5012C1B250C2E041D
:10244000B4434C434D43210C691889090591009D03
:10245000E90701D00121C90704912C4601996708B9
:10246000CD072F434C08059DE10B4D432D0C29460C
:102470006646754302950D4645432E46029D7D1BDB
:10248000B44100950D465D4301942C0C2F040D467C
:102490005543AE462D0C3D43029503947546049C6E
:1024A0002D04641B049406D2029C039D641C002628
:1024B00075410395029401AC70CC009F7D1B01E037
:1024C0003EE162E1B4410904009507910194059948
:1024D000A4086143090C0C464443650BE7040C4611
:1024E00066467443A646640B3C43039502947446C7
:1024F000049DE4042C1B049406D2029C039D641CDE
:10250000002675410395029401AC70CC009F7D1BA1
:10251000B44101940C465C430095650FE7000C46FE
:102520005443A646640F3C43039502947446049DAD
:10253000E4002C1B049406D2029C039D641C00261C
:1025400075410395029401AC70CC009F7D1BB44192
:10255000AE09AF06049DC900AD092F43049DA40632
:10256000AD060495079D344369180791059DE10B5D
:102570004D432D0C29466646754302950D4645434D
:102580002E46029D7D1BB44100950D465D4301948E
:102590002C0C2F040D465543AE462D0C3D430295A1
:1025A00003947546049C2D04641B049406D2029C7B
:1025B000039D641C002675410395029401AC70CC08
:1025C000009F7D1BB44101948C050694079C890AE9
:1025D000611800950791019C0599A4086143090CB5
:1025E0000D464543680BEF040D46644665436C0B8E
:1025F0003C43049FED047D1BAC4602D20025641CC5
:102600006841009E019D371B85410846584301954E
:102610000C46460FC5005443600F28436546E4004E
:102620002C1B02D20025401C6E41019D3F1AB54172
:102630002846BD09800628438446A009BF064E02ED
:102640000699A40676180743079D002068410A9959
:10265000079019430020099B00906046FF1913431F
:102660004041E20F64003A43A4460446D71A8C4125
:10267000A04203D90120009020463A46C70F941883
:1026800040416246D20F2243644664000494009C99
:10269000BE466400D71AA446044602978C4177468A
:1026A000002F01D1A04204D96046401C8446029A02
:1026B0002046C40FA64694184041049A0546D20FFE
:1026C000224364466400D31A8D417146002901D12A
:1026D000A84202D928461A46641C10430122002849
:1026E00000D0164361020020079B891904465C4113
:1026F0000223002C02DB491813466441089DCE0AD0
:102700002D145D194B056705E10A2C050D19089973
:102710003E43C9076940002B08D0934006D30022EE
:10272000761C5141002B01D1760876001C4A002D01
:1027300043DB154241D0AA433FD030460BB0F0BD39
:1027400006180D464D41174C7642AC411AD39518E8
:102750001C465C41134A6D42A24113D3012252052B
:102760004C00D4420AD15C00D4420BD04B4002D57D
:1027700092021143E2E749004908DFE75940C90FD7
:10278000C90718E000200849D8E7054801420DD1E3
:102790000342F7D0F2E700000000FF07A8AC0000FA
:1027A0000000F07F0000E0FF0000F87F1148594072
:1027B0000143C01241400020C0E70123089A9B0654
:1027C0009A4205DC032252078918C90FC907B5E7E9
:1027D000052252078918074A1143D2125140ADE72A
:1027E00070B515461C4602460B4628462146FFF7A3
:1027F000DFFD70BDFFFFFF7F0346CA02400D10B52D
:1028000010430A1504D00124E4072043002A05DB05
:102810000A4CA21A04D4D040FF2A00DD002010BDCB
:102820004A00002B01D0012000E0002010180122F6
:102830005205D042F2D8C817C04310BD1E04000094
:102840001F22030C02D10F22000402D0030E03D07A
:1028500004E00020014670470002083A030F01D14E
:102860000001121F830F01D18000921E002801DB9E
:102870004000521E120551184205C0124118104660
:102880007047C10FC90700D040420122920711438F
:10289000D6E701218907D3E70121C90501234118A2
:1028A00042001B06D3185B0E0AD0C1100722D206C5
:1028B000891840075242D14201D552008918704709
:1028C000090208D50146002A03D0C10FC90700201C
:1028D000704710467047420202D0002002497047FC
:1028E000072109050143F4E70000F87FF0B5FF2553
:1028F0002D04C609C209FF2704462E400137CB0923
:102900003E4348402A402B400746002A6BD0002B0C
:1029100069D0AA4267D0AB4265D0002800DA3246BF
:102920000125ED0529432C4309022002090AD21A88
:102930004B0C7F24E31A434C000A7C44E35C7D2467
:102940002404121914145B00A218884201D3521CEB
:1029500000E0400049420C465C4324115C43DB012B
:102960006415E318040A5C43C502200D0C46444379
:102970006419250A5D432303EC0C0D4665430003EF
:102980000019EB184C42A34201D35B18401CD4053C
:102990002018002B07D05B00C91804D3401C002965
:1029A00001D1400840003F2189048A4209D3002A0E
:1029B00008DC1106090F04D0032149074018C00F95
:1029C000C007F0BD01224100120689187F2252067D
:1029D0009142F6D205214907C84201D59010F0BDB9
:1029E000FF20C005F0BD002F00DA32461648AA428B
:1029F00007D2AB4205D21902090E17D0F80FC00753
:102A0000F0BDFF2563002D06AB42F9D84900A9426D
:102A1000F6D8AB4201D1A942F2D0A94201D100219E
:102A200001E061004908D0050843F0BD1102090E1C
:102A3000FBD0FF200243D005F0BD0A4601461046F8
:102A400054E7000006A800000000C07F1F22030C0E
:102A500002D10F2200041CD0030E01D10002083A5B
:102A6000030F01D10001121F830F01D18000921EBC
:102A7000002801DB4000521ED205511802125118E5
:102A80001922904004D3491C002801D1490849006B
:102A900008467047C10FC90700D040420122920783
:102AA0001143D3E701218907D0E7754600F024F8E8
:102AB000AE46050069465346C008C000854618B0BA
:102AC00020B5FFF767F960BC00274908B646002625
:102AD000C0C5C0C5C0C5C0C5C0C5C0C5C0C5C0C5CE
:102AE000403D49008D46704710B50446C046C0467B
:102AF0002046FFF722F910BD00487047700E0020F5
:102B000001491820ABBEFEE726000200704770B5F1
:102B10008C180578401C6B075B0F01D10378401CB3
:102B20002A1106D10278401C03E00678401C0E7082
:102B3000491C5B1EF9D12B0705D40023521E0DD46E
:102B40000B70491CFAE70378401CCB1A921C03E077
:102B50001D780D70491C5B1C521EF9D5A142D8D3BB
:102B6000002070BD836A0B43836242617047002975
:102B7000816801D0012200E0022211438160704788
:102B80000029C16802D00122114301E0490849002F
:102B9000C1607047C26802239A43C260C2680A4398
:102BA000C2607047064910B5884208D1441501211A
:102BB000204605F08FFE0021204605F08BFE10BD5B
:102BC00000240140826800210123DB071A43826050
:102BD0000F231B038268491CD20FD207994201D0F0
:102BE000002AF7D18168002901DB006C70470020C2
:102BF000704702460020CB0104D5926801231B06D2
:102C00009A4300E012680A4200D001207047000099
:102C100030B5C268084B8C681A400B680D792343A5
:102C2000CC686D032C4323430C69496923430B4350
:102C30001343C36030BD000003D2FFFF0122120323
:102C40000029C16801D0114300E09143C160704781
:102C50008168042211438160704700210160017185
:102C60008160C1600161416170470000F8B51A4D93
:102C70002A883821194803F0BDFB194C81022068CD
:102C80000126091AC910081820608001F60380196E
:102C9000000C27460C3738606A8838210F4803F04B
:102CA000A9FB81026068091AC910081860608001D8
:102CB0008019000C7860AA883821084803F09AFB34
:102CC0008102A068091AC9100818A0608001801943
:102CD000000CB860F8BD0000D40000203AC600081F
:102CE000B0030020F0B5174C2078010703D481070A
:102CF00001D4C10917D0134AF725121F131D5B78A1
:102D000011781E462B40002905D0012906D000234A
:102D1000022914D108E06370012003E0300702D5D6
:102D2000637002201070F0BD07490E7804273E43FF
:102D30000E702840FD2108404006400E20701370A0
:102D4000F0BD0000F00000203002002070B51248F5
:102D5000114A0078FF24C1062D3400250F4B202690
:102D6000121F002909DA5188491C89B25180A142F9
:102D700003D35580197831431970410701D4C00736
:102D800009D05088401C80B25080A04203D35580A7
:102D900018783043187070BDF0000020CE0100207C
:102DA00010B525480078400645D52448007801280C
:102DB00041D02348007801283DD0224822490068AC
:102DC00009680843214909680843214909680843FB
:102DD0002049096808432ED11F48007800282AD1CD
:102DE0001E480078002826D11D480078002822D1EE
:102DF0001C481D490088098808431C490988084364
:102E000019D11B4C2179481C2071082009F054F974
:102E1000C1B2002005F0FCF92079042801D300207C
:102E2000207102F065FD02F0E9FD02F08BFE02F078
:102E300005FF02F037FE10BD1C020020A801002093
:102E4000AA01002010010020140100201801002018
:102E5000200100201C0100200401002005010020A9
:102E600006010020280100202A0100202C0100205A
:102E7000F400002010B500220421082003F05EFEBB
:102E800001220421082003F059FE02220421082017
:102E900003F054FE002010BD10B5062008F00CFF12
:102EA00003480078800601D5FFF7E0FE10BD000062
:102EB0001C020020F8B5374800244078C00967D0CC
:102EC000354D05216A1D082003F06CFD2A460021BE
:102ED000082003F067FD31490A78FB200240687939
:102EE000C3075B0F1A430A700A788007F723C00FE5
:102EF0001A40C00002430A7028780027C106284EF5
:102F0000002911DA102108432870052008F014FE6A
:102F1000B079401CC0B2B071F02805D32148B77118
:102F20000178202211430170287881060DD571792E
:102F3000491CC9B27171142904D320210843777147
:102F400028700124062008F0F7FD297816484A0762
:102F5000002A08DA154B02881B689A4203D2042221
:102F6000114329700124C9B20A0708D5104A4088C4
:102F70001268904203D9082001432970012401F00E
:102F800079FD002C04D02A780021082003F0D6FD1A
:102F9000F8BD00001C020020C806002038020020F6
:102FA00040020020CE0100207C0C002034CD00081F
:102FB00038CD000830B5224885B0007880073DD56F
:102FC00020486A46408910801F481E4CC18A5180A3
:102FD000818A91801D490291808B9081D08101204E
:102FE00010742034A07D4007C00F5074104601F0CB
:102FF00097FA002822D06846407CA17DFB25C207B5
:103000002940520F1143A175104C2C3401280CD1CA
:103010002078400712D4102003F0D8F8102003F0D5
:1030200007F920780421084320706846407C002876
:1030300004D12078410701D52840207005B030BD6B
:103040001C0200207C0C0020240500203C010020F4
:1030500030B5224885B0007880073DD520486A46C3
:10306000408910801F481E4C018B5180418B9180FC
:103070001D490291808B9081D081012010742034F1
:10308000207E4007C00F5074104601F049FA002816
:1030900022D06846407C217EFB25C2072940520F82
:1030A00011432176104C2C3401280CD12078400794
:1030B00012D41D2003F08AF81D2003F0B9F82078FF
:1030C0000421084320706846407C002804D1207801
:1030D000410701D52840207005B030BD1C020020FA
:1030E0007C0C0020240500203E01002030B5224841
:1030F00085B0007880073DD520486A464089108019
:103100001F481E4CC18B5180018C91801D4902913A
:10311000C08C9081D081002010742034A07D0007E5
:10312000C00F5074104601F0FBF9002822D0684609
:10313000407CA17DF725C2072940120F1143A175DC
:10314000104C283401280CD12078000712D411200B
:1031500003F03CF8112003F06BF8207808210843B5
:1031600020706846407C002804D12078010701D5F2
:103170002840207005B030BD1C0200207C0C0020CF
:10318000240500204001002030B5224885B0007899
:1031900080073DD520486A46408910801F481E4C54
:1031A000818C5180418C91801D490291C08C90810D
:1031B000D081002010742034207E0007C00F50748E
:1031C000104601F0ADF9002822D06846407C217EEF
:1031D000F725C2072940120F11432176104C2834DD
:1031E00001280CD12078000712D41E2002F0EEFF37
:1031F0001E2003F01DF8207808210843207068463F
:10320000407C002804D12078010701D52840207097
:1032100005B030BD1C0200207C0C002024050020DD
:103220004201002010B5022008F046FD00280FD012
:103230001548407840060BD5144915480A78130004
:1032400009F08EF90504070D13191F0001F0BAFDEE
:1032500010BD0078C007C00F01F0F4FD10BD00786C
:10326000C007C00F01F09CFE10BD0078C007C00F62
:1032700001F03CFE10BD0078C007C00F01F066FEF3
:1032800010BD0020087010BD1C020020DA000020D4
:1032900030020020F0B5274885B0007800073AD505
:1032A00025496A46088C108024480C46C38F5380F9
:1032B000808F9080224802902048203440308088BF
:1032C0009081D08101201074A07D1D4D4006C00F5B
:1032D0004027BF261C355074002801D01BD002E0C7
:1032E000888C012817D9104601F01AF9002812D04D
:1032F0006846407CA17DC2073140520E1143A17542
:1033000001280AD06846407C002804D1287841066C
:1033100001D53040287005B0F0BD28784006FAD4B9
:10332000142002F053FF142002F082FF2878384363
:103330002870E7E71C0200207C0C002024050020F8
:103340004C010020F0B5274885B00078000739D53A
:1033500025496A46088C108024480C46038853800F
:1033600043889380224A029280886A469081D08165
:10337000012010742034207E1D4D4006C00F4027D0
:10338000BF261C355074002801D01BD002E0888C69
:10339000012817D9104601F0C3F8002812D068465A
:1033A000407C217EC2073140520E11432176012814
:1033B0000AD06846407C002804D12878410601D50F
:1033C0003040287005B0F0BD28784006FAD421209E
:1033D00002F0FCFE212002F02BFF287838432870F1
:1033E000E7E700001C0200207C0C002064050020A0
:1033F0004E01002070B5274886B00078C0063AD547
:1034000025496A46488C108024480C46C38853805E
:1034100003899380224A0292C0896A469081D081B2
:10342000002010742034E07D1D4DC007C00F012620
:1034300010355074002801D01DD002E0888C01287E
:1034400019D9104601F06CF8002814D0E07D41082D
:103450006846407C4900C207D20F1143E17501283C
:103460000BD06846407C002805D16878C10702D09F
:1034700040084000687006B070BD6878C007FAD197
:10348000152002F0A3FE152002F0D2FE687830432A
:103490006870E6E71C0200207C0C00206405002018
:1034A0005801002070B5274886B00078C0063AD58C
:1034B00025496A46488C108024480C4683895380ED
:1034C00043899380224A0292C0896A469081D081C2
:1034D000002010742034607E1D4DC007C00F802670
:1034E00010355074002801D01DD002E0888C0128CE
:1034F00019D9104601F014F8002814D0607E410854
:103500006846407C4900C207D20F1143617601280A
:103510000BD06846407C002805D12878C10902D02C
:103520004006400E287006B070BD2878C009FAD158
:10353000222002F04BFE222002F07AFE287830434F
:103540002870E6E71C0200207C0C002064050020A7
:103550005A01002070B5264886B00078000738D59B
:1035600024496A46088C108023480C46438A5380BD
:10357000038A9380214A0292008B6A469081D0810F
:10358000012010742034A07D1C4DC0098026183500
:103590005074002801D01CD002E0C88C012818D932
:1035A000104600F0BDFF002813D0A07D41066846FC
:1035B000407C490EC2011143A17501280BD0684619
:1035C000407C002805D12878C10902D04006400E71
:1035D000287006B070BD2878C009FAD1162002F014
:1035E000F5FD162002F024FE287830432870E6E727
:1035F0001C0200207C0C00206405002050010020EB
:1036000070B5254886B00078000736D523496A464C
:10361000088C108022480126838A5380C38A9380B5
:10362000204A0292008B6A469081D0810C46167423
:103630002034207E1C4DC009507402D000281CD0BC
:1036400002E0C88C012818D9104600F069FF002854
:1036500013D0207E41066846407C490EC2011143CA
:10366000217601280BD06846407C002805D1687877
:10367000C10702D040084000687006B070BD68788D
:10368000C007FAD1232002F0A1FD232002F0D0FDD3
:10369000687830436870E6E71C0200207C0C00204C
:1036A00064050020520100206A010020F0B527487F
:1036B00085B00078C00639D525496A46488C108007
:1036C00024480C46438B5380838B9380224A02927A
:1036D000408C6A469081D081002010742034E07DB7
:1036E0001D4D8007C00F0227FD260C3550740028A1
:1036F00001D01BD002E0C88C012817D9104600F079
:103700000FFF002812D06846407CE17DC20731409F
:10371000920F1143E17501280AD06846407C0028C9
:1037200004D16878810701D53040687005B0F0BDDC
:1037300068788007FAD4172002F048FD172002F0BD
:1037400077FD687838436870E7E700001C020020C6
:103750007C0C0020640500205C010020F0B52748A7
:1037600085B00078C00639D525496A46488C108056
:1037700024480C46038C5380C38B9380224A0292C8
:10378000408C6A469081D081002010742034607E85
:103790001D4D8007C00F0227FD260C3550740028F0
:1037A00001D01BD002E0C88C012817D9104600F0C8
:1037B000B7FE002812D06846407C617EC2073140C7
:1037C000920F1143617601280AD06846407C002898
:1037D00004D16878810701D53040687005B0F0BD2C
:1037E00068788007FAD4242002F0F0FC242002F04C
:1037F0001FFD687838436870E7E700001C0200206E
:103800007C0C0020640500205E01002030B52248B9
:1038100085B00078C0073DD0204869460088088000
:103820001F481E4C42884A8002888A801D490291A6
:10383000008969468881C88101250D742034A07DE6
:1038400028404874684600F06BFE002822D0A07D16
:1038500041086846407C4900C207D20F1143A17558
:10386000104C343401280BD12078C00712D10E201F
:1038700002F0ACFC0E2002F0DBFC20782843207024
:103880006846407C002805D12078C10702D0400856
:103890004000207005B030BD1C0200207C0C0020D0
:1038A000240500203401002030B5224885B000787E
:1038B000C0073DD020486946008808801F481E4C3C
:1038C00082884A80C2888A801D490291008969469F
:1038D0008881C88101250D742034207E28404874D9
:1038E000684600F01DFE002822D0207E4108684670
:1038F000407C4900C207D20F11432176104C34346A
:1039000001280BD12078C00712D11B2002F05EFCE9
:103910001B2002F08DFC2078284320706846407CF4
:10392000002805D12078C10702D04008400020704F
:1039300005B030BD1C0200207C0C002024050020B6
:103940003601002030B5234885B0007800073FD508
:1039500021486A46008D108020481F4C018F5180FD
:10396000408F90801E4802901C48203440300088D0
:103970009081D08100201074E07DC006C00F50748B
:10398000104600F0CDFD002822D06846407CE17D45
:10399000EF25C2072940D20E1143E175104C0834BF
:1039A00001280CD16078C00612D41A2002F00EFC57
:1039B0001A2002F03DFC60781021084360706846D0
:1039C000407C002804D16078C10601D52840607091
:1039D00005B030BD1C0200207C0C002064050020D6
:1039E0006001002030B5234885B0007800073FD53E
:1039F00021486A46008D108020481F4CC18F51809D
:103A0000808F90801E4802901C48203440300088EF
:103A10009081D08100201074607EC006C00F507469
:103A2000104600F07DFD002822D06846407C617E73
:103A3000EF25C2072940D20E11436176104C08349D
:103A400001280CD16078C00612D4272002F0BEFBFA
:103A5000272002F0EDFB6078102108436070684673
:103A6000407C002804D16078C10601D528406070F0
:103A700005B030BD1C0200207C0C00206405002035
:103A80006201002030B5224885B00078C0073DD0E3
:103A900020486A46408810801F481E4C418951804A
:103AA000818991801D490291408A9081D0810020B6
:103AB00010742034A07D8007C00F5074104600F0B1
:103AC0002FFD002822D06846407CA17DFD25C2073D
:103AD0002940920F1143A175104C303401280CD1AC
:103AE0002078800712D40F2002F070FB0F2002F024
:103AF0009FFB20780221084320706846407C002804
:103B000004D12078810701D52840207005B030BD50
:103B10001C0200207C0C002024050020380100201D
:103B200030B5224885B00078C0073DD020486A46AD
:103B3000408810801F481E4C018A5180C1899180A5
:103B40001D490291408A9081D08100201074203458
:103B5000207E8007C00F5074104600F0E1FC002862
:103B600022D06846407C217EFD25C2072940920F65
:103B700011432176104C303401280CD12078800775
:103B800012D41C2002F022FB1C2002F051FB2078F2
:103B90000221084320706846407C002804D1207828
:103BA000810701D52840207005B030BD1C020020DF
:103BB0007C0C0020240500203A01002000B50448B8
:103BC0004078400603D5FFF78DF8FFF7BFF800BD3A
:103BD0001C02002010B5034800F008F8024800F06D
:103BE0006DF810BD340900203A0A0020F8B50446EB
:103BF000407800280AD0E51D0026F9352D4F012810
:103C000008D002282BD003283FD06670204606F04B
:103C100017FAF8BD3868202188433860204601F043
:103C2000B5F8207A00280BD1687903280BD0062834
:103C30000DD010280FD0A6710120207208206072CC
:103C400002206070E2E7204606F084FEF8E7204696
:103C500006F0B8FEF4E7204606F0F8FEF0E76879D3
:103C6000032804D0062806D0102807D103E02046F8
:103C700006F006FB02E0204606F018FE3868082130
:103C8000084338600C49012008700B4A507800281E
:103C9000BCD06670A672E672267366735670267084
:103CA00038680421084338603968202001433960AE
:103CB0001670ABE700380140A8010020F8B50446B3
:103CC000407800280AD0E51D0026F9352D4F01283F
:103CD00008D002282BD003283FD06670204606F07B
:103CE00087FAF8BD3868202188433860204601F003
:103CF0004DF8207A00280BD1687903280BD00628CC
:103D00000DD010280FD0A6710120207208206072FB
:103D100002206070E2E7204606F01CFEF8E720462D
:103D200006F050FEF4E7204606F090FEF0E76879D2
:103D3000032804D0062806D0102807D103E0204627
:103D400006F09EFA02E0204606F0B0FD3868082131
:103D5000084338600C49012088700B4AD07800284D
:103D6000BCD06670A672E67226736673D670267033
:103D700038680421084338603968202001433960DD
:103D80009670ABE700440040A8010020F0B52C4B32
:103D90002C485A78818C0020002A0ED02A4C2025ED
:103DA000012A21D0022A1ED1284EB27E9206920EFE
:103DB00014291DD28032B2761CE0254A128A920460
:103DC0009A8802D4521C9A800AE0032A01D3022462
:103DD0005C70FF24F534A24201D301225A7098800E
:103DE000002900D09880F0BD207828432070F0BDD5
:103DF000B276D880DA88174F521C92B2DA80BA4273
:103E000003D3D88022782A432270114A128A92045E
:103E10009A8802D4521C9A800DE0032A0AD3587063
:103E2000B47EA406A40EB476FF24F534A24201D3D6
:103E300001225A7098800029D9D09880D880F0BD8E
:103E40007C0100207C0C0020CE010020280D0020E9
:103E50000008004860EA000010B510488178C26888
:103E600011430269114342691143027811430BD196
:103E70004178002908D18169002905D1C16900294B
:103E800002D1006A002801D008F0C8F9044800787F
:103E9000002801D008F0C2F910BD00000401002084
:103EA0008501002010B5094C207801280CD10A208A
:103EB00008F064FB00202070BFF34F8F05490448D1
:103EC000C860BFF34F8FFEE710BD0000AC010020BB
:103ED0000400FA0500ED00E010B502F0F3FB01F07C
:103EE000DBF810BD30B5234885B0007840073FD5DA
:103EF00021486A46808C108020481F4C418D51809B
:103F0000018D91801E490291008E1E4990814018BA
:103F1000D081012010742034A07DC006C00F5074E1
:103F2000104600F0FDFA002822D06846407CA17DB2
:103F3000EF25C2072940D20E1143A175104C24343D
:103F400001280CD12078C00612D4122002F03EF9CC
:103F5000122002F06DF92078102108432070684685
:103F6000407C002804D12078C10601D5284020706B
:103F700005B030BD1C0200207C0C00202405002070
:103F800044010020B80B000030B5234885B000780C
:103F900040073FD521486A46808C108020481F4C3E
:103FA000818D5180C18D91801E490291008E1E49E4
:103FB00090814018D081012010742034207EC006EA
:103FC000C00F5074104600F0ABFA002822D06846AB
:103FD000407C217EEF25C2072940D20E1143217675
:103FE000104C243401280CD12078C00612D41F2094
:103FF00002F0ECF81F2002F01BF920781021084392
:1040000020706846407C002804D12078C10601D584
:104010002840207005B030BD1C0200207C0C002020
:104020002405002046010020B80B000030B52348CD
:1040300085B0007840073FD521486A46C08C108083
:1040400020481F4C818E5180418E91801E490291E3
:10405000408F1E4990814018D08101201074203477
:10406000A07D8006C00F5074104600F059FA002859
:1040700022D06846407CA17DDF25C2072940920EF0
:104080001143A175104C203401280CD120788006F2
:1040900012D4132002F09AF8132002F0C9F8207805
:1040A0002021084320706846407C002804D12078F5
:1040B000810601D52840207005B030BD1C020020CB
:1040C0007C0C00202405002048010020B80B0000D3
:1040D00030B5234885B0007840073FD521486A466F
:1040E000C08C108020481F4CC18E5180018F918060
:1040F0001E490291408F1E4990814018D0810120B5
:1041000010742034207E8006C00F5074104600F0DA
:1041100007FA002822D06846407C217EDF25C207AE
:104120002940920E11432176104C203401280CD1E5
:104130002078800612D4202002F048F8202002F0D7
:1041400077F820782021084320706846407C0028BA
:1041500004D12078810601D52840207005B030BDFB
:104160001C0200207C0C0020240500204A010020B5
:10417000B80B000010B55A484078C0097DD05948A6
:104180004178002979D14168C41C491C41602078DC
:10419000621CC007C00F012103F0DAFF2078621C07
:1041A0008007C00F022103F0D3FF4F48621C408FED
:1041B0000321C0B203F0CCFF4C4C6078494AC007E1
:1041C000C00F121D042103F0C3FF6078454A800729
:1041D000C00F121D052103F0BBFF434C414A2034A0
:1041E000207E121DC007C00F062103F0B1FF207E04
:1041F0003C4A4007C00F121D072103F0A9FF207E93
:10420000384AC006C00F121D082103F0A1FF207E0E
:10421000344A8007C00F121D092103F099FF207E48
:10422000304A0007C00F121D0A2103F091FF207EC3
:104230002C4A8006C00F121D0B2103F089FF607EFF
:10424000284AC007C00F121D0C2103F081FF607EB9
:10425000244A8007C00F121D0D2103F079FF207E34
:10426000204A4006C00F121D0E2103F071FF207E70
:104270001C4AC009121D0F2100E02FE003F068FF67
:10428000607E184A4007C00F121D102103F060FF26
:10429000312007F051FC134A1221121D03F058FF80
:1042A000322007F049FC0F4A1321121D03F050FF82
:1042B0003E2007F041FC0446342007F03DFC094A4B
:1042C0002018C0B2121D142103F042FF3D2007F058
:1042D00033FC044A1121121D03F03AFF10BD000007
:1042E0001C020020840100207C0C002038020020E9
:1042F00010B5042007F0E0FC002814D00A4C207808
:10430000C00710D0FFF742FD05F0A2F802F03EF81A
:1043100001F02AFD054800784007C10F2078C0074A
:10432000C00F01F041FD10BD1C0200203002002032
:1043300010B5234886B00078C0063ED521486A46AD
:10434000C08B108020481F4CC18C5180818C918083
:104350001E490291808D9081D081012010742034FB
:10436000E07D8006C00F5074104600F0D9F8002898
:1043700023D0E17DDF2001406846407CC207920ED9
:104380001143E175114C143401280CD160784007B9
:1043900013D4182001F01AFF182001F049FF6078AB
:1043A0000421084360706846407C002805D160788D
:1043B000410702D5FB210840607006B010BD000027
:1043C0001C0200207C0C0020640500205401002009
:1043D00010B5234886B00078C0063ED521486A460D
:1043E000C08B108020481F4C018D5180418D9180E1
:1043F0001E490291808D9081D0810120107420345B
:10440000607E8006C00F5074104600F089F80028C6
:1044100023D0617EDF2001406846407CC207920EB7
:1044200011436176114C143401280CD16078400797
:1044300013D4252001F0CAFE252001F0F9FE607892
:104440000421084360706846407C002805D16078EC
:10445000410702D5FB210840607006B010BD000086
:104460001C0200207C0C0020640500205601002066
:1044700070B51B4DFF22298A688AF532091850430E
:10448000FDF7FBFCFF214B31884201D9154802E0C2
:104490000003FDF7F2FC144E04467060688F7D2225
:1044A000D200A98F5043FDF7E8FCE98A4143880018
:1044B0000E49FDF7E2FC0E496143090B081A81B26F
:1044C0007D20C0014443200C31800A4C708020467E
:1044D00007F0EFFC7188204607F0EDFC70BD00008E
:1044E000E4040020FF0F00009401002010270000CA
:1044F000960200000004004010B5084C2078002807
:1045000003D0012806D0002002E003F01DF90120AD
:10451000207010BD07F096FF10BD00008D01002037
:1045200070B5027C012A03D841888388994201D260
:10453000002070BD467C0125AA1A002496420ED1A7
:1045400002888A421CD381680A88521C92B20A806F
:1045500081898A421AD381680C80017C0EE001882F
:1045600099420DD881680A88521C92B20A80C1898A
:104570008A420BD381680C80017C691A417405E082
:1045800081680888002801D0401E0880012070BD85
:1045900010B5012007F090FB0B4C2078002811D0BB
:1045A00004F0EAFF01F000FF207805F0AFFA0020E8
:1045B00020700648C089002804D0054801784908C1
:1045C0004900017010BD00000D020020E40D002024
:1045D0003C02002010B5FFF7FDFA00F053F910BDC2
:1045E00070B52F484078800710D52E480178C9074C
:1045F0000CD141782026314341702B4C60788006E5
:1046000005D52A48022201781143017070BD28485F
:104610004078800608D42078C00605D4207880062B
:1046200002D420784006F1D51F4D123D28780300B2
:1046300007F096FF0D08261128141728230B1A1DC2
:10464000200E2C0007F084F91CE007F01DF919E09A
:1046500007F0B0F916E007F057F913E006F032FF63
:1046600010E006F0A3FF0DE006F0C8FF0AE007F037
:1046700035F807E007F0A4F804E007F0B1F901E02D
:1046800006F044FF2878012807D001E000202870B8
:104690006078DF210840607070BD60783043FAE7D1
:1046A0003002002038020020CE01002087010020C7
:1046B0001C020020F0B571480178DF221140017022
:1046C000014614398B79CA78934204D08A710278F2
:1046D00020231A43027002785208520002700278B6
:1046E000FD252A4002700378FB22134003700278F4
:1046F000F7231A4002700278EF231A400270CB7938
:104700008A780424934217D0CA71130007F028FF57
:104710000504070E97A914000278012304E00A7A21
:10472000521C0A72027802231A4304E04A7A521C8D
:104730004A720278224302700278BF231A40027044
:104740000E7A0022052E04D30A72067840273E43D3
:10475000067006787606760E06704E7A0A2E04D318
:104760004A72067880273E430670467876087600BF
:10477000467046782E4046704578FB263540457099
:104780004578F726354045704578EF263540457029
:104790008D7A142D04D38A724578012635434570ED
:1047A000CD7A142D04D3CA7245780226354345705C
:1047B0000D7B142D03D30A734578254345704D7B3B
:1047C000142D10D34A7345780826354345702C4E76
:1047D000B58A6F07FF17BF003F1D7C070427640FD2
:1047E000BD432C43B4828C7B142C04D38A7344784D
:1047F00010252C4344704478DF252C4044704478C5
:104800001C40447043785B065B0E4370CB7B642B8B
:1048100004D3CA7343782024234343700B7C642B56
:1048200004D30A74447840231C4344704B7C642BAB
:1048300004D34A744178802211434170F0BD8A7AD2
:10484000521C8A72CA7A521CCA720A7B521C0A73A0
:104850004A7B521C4A738A7B521C8A730278082353
:1048600062E7CA7B521CCA730A7C521C0A744A7CD7
:10487000521C4A740278102356E700001C020020E4
:10488000000400487047000010B5234886B0007847
:10489000C0063ED521486A460089108020481F4C3A
:1048A000018E5180C18D91801E490291C08E9081F0
:1048B000D081012010742034E07D4007C00F507477
:1048C0001046FFF72DFE002823D0E17DFB2001409C
:1048D0006846407CC207520F1143E175114C241DFC
:1048E00001280CD16078000713D4192001F06EFC68
:1048F000192001F09DFC607808210843607068462B
:10490000407C002805D16078010702D5F7210840D6
:10491000607006B010BD00001C0200207C0C00205E
:10492000640500206401002010B5244886B000789A
:10493000C00641D522486A46008910802148204C93
:10494000418E5180818E91801F490291C08E90814D
:10495000D081012010742034607E4007C00F507455
:104960001046FFF7DDFD002826D0617EFB200140C8
:104970006846407CC207520F11436176124C241DD9
:1049800001280FD16078000716D4262001F01EFC04
:10499000262001F04DFC112007F0CEF860780821A8
:1049A000084360706846407C002805D160780107A4
:1049B00002D5F7210840607006B010BD1C0200202F
:1049C0007C0C0020640500206601002070B50A4CB4
:1049D0008025A08AA843A082012007F0CFFDA08AED
:1049E0002843A082052007F0C9FDA08AA843A08221
:1049F0000A2007F0C3FD70BD0014004810B5032065
:104A000007F05AF9002833D0FEF700FFFEF74CFFFD
:104A1000FFF738F8FFF784F8FEF7CCFAFEF718FB3B
:104A2000FEF764FBFEF7B0FBFFF782FCFFF7D0FC5C
:104A3000FFF72AFFFFF778FFFFF7F8FAFFF748FBC9
:104A4000FFF750FAFFF7A0FAFEF77CFFFEF7CAFF68
:104A5000FEF780FDFEF7D4FDFEF728FEFEF77EFE92
:104A6000FEF718FCFEF76EFCFEF7C4FCFEF71AFD1D
:104A700010BD0000F8B52A4C2A4D607801260227A7
:104A80002A78002804D001280ED002281FD112E075
:104A900090071CD50D2007F04FF823480178FB2222
:104AA00011400170667012E02048802201781143A5
:104AB000017067700BE03A432A700021082002F071
:104AC0003DF82878FD210840287000206070A0780B
:104AD000002811D001281CD002280CD12A780021EE
:104AE00032432A70082002F029F828784008400054
:104AF00028700020A070F8BD2878C007FBD00A48B5
:104B00000178FB22114001700A2007F015F8A67009
:104B1000F8BD06488022017811430170A770F8BDE6
:104B200040020020C806002030020020F0000020D3
:104B300010B50E4B002812D0CA071946D20F49797A
:104B4000012802D002280AD104E04808400010439E
:104B5000587104E0FD2001405000014359715A7919
:104B60000521082001F0EAFF10BD0000C806002062
:104B700010B50023154A002806D015490A24098AD1
:104B8000022805D003280DD053709370D37014E021
:104B90000846152318405070480920409070880A34
:104BA000184009E00846204050700A480140880536
:104BB000C00E90704804C00ED0700323012108205D
:104BC000521C01F089FFC0B210BD0000C8060020D1
:104BD000DA000020AAAA0000F0B500251C49002830
:104BE0000AD01C4A1C4E148A1C4A13781A019219C6
:104BF000022803D0032816D04D87F0BD18484D87F2
:104C0000044000200CE01618203E367C2746F74072
:104C1000FE07F60FADB286403543401C4D87C0B24B
:104C20009842F0D3F0BD0F484D87044000200CE0BF
:104C30001618203E367C2746F740FE07F60FADB229
:104C400086403543401C4D87C0B29842F0D3F0BD3A
:104C50007C0C0020DA000020ACCD00088C01002084
:104C600055550000AAAA0000F0B535483549002284
:104C700046888A71344910460D883449097843E0E2
:104C8000334C235C002B02D0022B17D035E02C4B89
:104C90004700403BDB5B2C4FAB4227D37F88BF19DB
:104CA000BB4223D32A4F10373B5C5B1CDBB23B5427
:104CB000022B22D302222254002214E0204B470070
:104CC000403BDB5B204FAB4203D3BF88BF19BB42E5
:104CD0000CD21F4F10373B5C5B1CDBB23B54022BEA
:104CE0000BD3002222543A54012206E0184F103709
:104CF0003B5C002B01D05B1E3B54124B245C9F7924
:104D0000E419401C9C71C0B28842B9D3002A16D065
:104D100000200C4B0F4C0A0118820D4E15190CE0A7
:104D2000325C002A00D001222C18203C247CA240B6
:104D30001C8A2243401C1A82C0B28842F0D3F0BDC4
:104D40007C0C0020DA000020E40400208C0100200C
:104D5000C8030020ACCD000870B5044600200FE069
:104D600025788023060603D54006000E504001E05A
:104D70004006000E1D4200D050405B08F2D1641C7A
:104D80000B46491EC9B2002BEAD170BD70B504466E
:104D90000078801E80B221188A7AC97A09025118D7
:104DA0008DB2C1B220460A3005F0A2FD01460020B6
:104DB000A94201D1207270BDA07101202072022091
:104DC000607270BDFEB5194900200A4610320446D3
:104DD0000C541454401CC0B21028F9D3144D15487B
:104DE0002C82EC714487144A032354709470D4705D
:104DF00001210820521C01F06FFE10480A210078A2
:104E0000FDF73BF8012606290DD18027684600975B
:104E10000671447184710A4C6946204601F052FAC9
:104E2000A08AB843A0822E70FEBD0000C8030020F7
:104E3000DA0000207C0C0020C80600208C01002035
:104E400000040048F8B52649264C8E8C2289CB8C6C
:104E5000002584460A2E29D80A2B27D8224F0888F5
:104E60003F88B84222D3204F0889BF88B8421DD35B
:104E7000604600281AD0A078002808D0521C90B2B2
:104E8000FF212D312081884220D32581A570FFF795
:104E9000EBFEA07900281AD002202070607800284C
:104EA00014D1122006F048FE012016E0488F218A16
:104EB000E7793943084300D025700A2E01D80A2B20
:104EC00004D90120A070002A00D02581F8BD04205B
:104ED000207060780028F9D000206070F8BD0000D4
:104EE0007C0C0020DA000020E404002010B5002132
:104EF000144C002803D1A181217101202070207958
:104F00000422002802D001281AD111E0208A0E497B
:104F1000084201D1227010BD0320FFF729FE0028AE
:104F2000F9D10320FFF758FE2079401C207110BDF5
:104F3000A089401C80B2A0810528F8D3A1812270ED
:104F4000217110BDDA000020AAAA000070B500216E
:104F50000125114C002802D1E18161712570607931
:104F6000002802D0012815D10AE0A079002805D137
:104F7000FFF7FEFD002801D1FFF72EFE257070BD62
:104F8000E089064A401C80B2E081D28F9042F6D37D
:104F9000E1812570617170BDDA000020E404002019
:104FA00010B50021144C002803D16181E17001206B
:104FB0002070E0780322002802D001281AD111E0E5
:104FC000208A0E49084201D1227010BD0220FFF74D
:104FD000CFFD0028F9D10220FFF7FEFDE078401C4C
:104FE000E07010BD6089401C80B260810728F8D352
:104FF00061812270E17010BDDA000020555500007B
:10500000024600204300CB5A934204D2401CC0B257
:105010000A28F7D301E00A2800D3092070470000CE
:105020007CB51C4C05460823221D042101F054FDCB
:10503000064608236A460421284601F00BFC69460F
:10504000097822798019914222D16946497862799A
:1050500091421DD169468978A379994218D1694650
:10506000C978E279914213D169460979227A91424D
:105070000ED169464979627A914209D169468979A6
:10508000A27A914204D16946C979E27A914200D06C
:1050900001207CBDC806002010B5164800784006E7
:1050A00026D5092006F008FE002821D012484078B5
:1050B00040061DD511484078401F030007F050FA04
:1050C000030306090B0000F059F804E000F03EF875
:1050D00001E000F017F80A48407809228007C00F65
:1050E000D2060003918A01231B0399430143918255
:1050F00010BD0000300200201C0200206E010020C4
:105100003802002010B50D480E49038C0C480022CF
:1051100004894888A3420DD2401C80B248800328ED
:1051200007D909484A804278FD231A404270062078
:10513000487010BD0028FCD04A8010BD7C0C0020B7
:10514000960600206E01002038020020074808491A
:10515000008CC988884207D306484178022211434F
:105160004170054907204870704700007C0C002002
:1051700096060020380200206E0100200748082211
:10518000417811434170064801784906490E017083
:105190000249062008394870704700007601002057
:1051A0003C02002010B50446002C02D0012C7DD119
:1051B00089E09848C188803880897838814223DB2B
:1051C0009448C18880388089323881421CDA9248FC
:1051D000C07B5F2818DA91480088401C80B28F4954
:1051E0000880082850DB002008808B48C07B401CCA
:1051F0008949C873C8696421FCF73FFE864909697B
:105200004018854908613FE08248C188803880891C
:105210003238814238DB8048C07B642834DA7E48EB
:10522000C07B5F2818DD7E480088401C80B27C4926
:105230000880032828DB002008807748C07B401CBA
:105240007549C873C8696421FCF717FE724909697A
:1052500040187149086117E072480088401C80B20C
:105260007049088003280FDB002008806A48C07B53
:10527000401C6949C873C8696421FCF7FEFD664992
:10528000096940186449086167480088002802D00D
:1052900000206549088065480088002802D0002069
:1052A0006249088062480088002800E0AEE002D031
:1052B00000205F4908805F480088002802D0002055
:1052C0005C490880A3E053480189803840897830E0
:1052D000814223DC4F480189803840893230814245
:1052E0001CDD4D48C07B052818DD4F480088401C58
:1052F00080B24D490880082850DB002008804648CD
:10530000C07B401E4449C873C8696421FCF7B5FDE1
:1053100041490969081A404908613FE03D4801894F
:10532000803840893230814238DC3B48C07B0028DD
:1053300034DD3948C07B032818DA3C480088401C1B
:1053400080B23A490880032828DB002008803248D0
:10535000C07B401E3049C873C8696421FCF78DFDCD
:105360002D490969081A2C49086117E0304800885E
:10537000401C80B22E49088003280FDB00200880E3
:105380002548C07B401E2449C873C8696421FCF7C6
:1053900074FD21490969081A1F4908611E48C07B2C
:1053A000012816DC1B48018980384089323081424F
:1053B0000FDD1948C07B1849C87300208860C97B7D
:1053C000154AD269514308466421FCF756FD12493B
:1053D000086112480088002802D000200F49088088
:1053E0000F480088002802D000200D4908800D4891
:1053F0000088002802D000200A4908800E48008852
:10540000002802D000200C49088000E000BF00BF47
:1054100010BD0000E40D0020080E002092030020C3
:1054200094030020960300209A0300209C03002090
:105430009E030020A00300209803002010B504461E
:10544000002C02D0012C7DD1ACE0BB48C188803853
:1054500080896438814223DBB748C088B6498039E7
:10546000898988421CDAB548C07B5F2818DAB448BD
:105470000088401C80B2B24908800A2850DB002016
:105480000880AE48C07B401CAC49C873C869642121
:10549000FCF7F3FCA94909694018A84908613FE0F5
:1054A000A548C088A44980398989884238DBA34847
:1054B000C07B642834DAA148C07B5F2818DDA1488E
:1054C0000088401C80B29F490880082828DB002003
:1054D00008809A48C07B401C9849C873C8696421F9
:1054E000FCF7CBFC9549096940189449086117E01D
:1054F00095480088401C80B29349088004280FDB3F
:10550000002008808D48C07B401C8C49C873C86946
:105510006421FCF7B2FC8949096940188749086190
:105520008548C18880388089323081421DDB8348BC
:10553000C07B642819DA85480088401C80B2834902
:10554000088000E0F4E002280FDB002008807B48A0
:10555000C07B401C7949C873C8696421FCF78DFC85
:10556000764909694018754908617948008800281A
:1055700002D000207649088076480088002802D0B2
:1055800000207449088074480088002802D0002058
:105590007149088071480088002802D000206F49B6
:1055A0000880C6E0644801898038408964308142BF
:1055B00023DC6148008960498039498988421CDDC3
:1055C0005E48C07B052818DD61480088401C80B219
:1055D0005F4908800A2850DB002008805748C07BBC
:1055E000401E5649C873C8696421FCF746FC5349FC
:1055F0000969081A514908613FE04F4800894E493E
:1056000080394989884238DC4C48C07B002834DD29
:105610004A48C07B052818DA4E480088401C80B2F2
:105620004C490880082828DB002008804348C07BBC
:10563000401E4249C873C8696421FCF71EFC3F49FB
:105640000969081A3D49086117E043480088401C71
:1056500080B24149088004280FDB002008803748C9
:10566000C07B401E3549C873C8696421FCF705FC3E
:1056700032490969081A314908612F48018980387F
:105680004089323881421BDC2C48C07B002817DD62
:1056900032480088401C80B23049088002280FDB65
:1056A000002008802548C07B401E2449C873C86973
:1056B0006421FCF7E2FB21490969081A1F490861C6
:1056C0001E48C07B012816DC1B4800891A49803916
:1056D000498988420FDD1948C07B1849C8730020EA
:1056E0008860C97B154AD269514308466421FCF79A
:1056F000C4FB1249086112480088002802D000202B
:105700000F4908800F480088002802D000200D496A
:1057100008800D480088002802D000200A4908802F
:105720000A480088002802D000200849088000E0CC
:1057300000BF00BF10BD0000E40D0020080E0020D7
:1057400082030020840300208603002088030020B9
:105750008A0300208C0300208E0300209003002089
:1057600010B50446002C02D0012C24D111E01348BE
:10577000C078002802D0012808D103E02046FFF7B6
:105780005DFE04E02046FFF70DFD00E000BF00BF16
:1057900012E00A480079002802D0012808D103E06D
:1057A0002046FFF74BFE04E02046FFF7FBFC00E03D
:1057B00000BF00BF00E000BF00BF10BDE40D00202F
:1057C0000029016802D00122114301E0014A114081
:1057D00001607047FEFF0000F0B501682B4A1140E0
:1057E00001600021016041608160C1602849284A50
:1057F00008390F2390422DD0254AF02414329042CC
:105800002FD0234A1D022832904231D0204E1A0355
:105810003C36B04203D1486815E04860F0BD1C4FEB
:105820000F2650373604B8422DD0194F6437B8428E
:1058300002D14868320106E0154F7837B84204D1EA
:1058400048680F2212061043E7E71249114F083942
:10585000B84202D148681843DFE70E4B1433984230
:1058600002D148682043D8E70A4B2833984202D136
:1058700048682843D1E7074B3C339842CBD0054AD0
:1058800050329042CAD148683043C6E7FEFF00005C
:10589000080002400804024030B503680C4A0C6A54
:1058A00013408A684D6922430C692C4322438C695A
:1058B0002243CC6922434C6A22438C6A22431A4316
:1058C0000260CA6842600A6882604968C16030BD8F
:1058D0000F80FFFF0021016041608160C1600161B4
:1058E00041618161C1610162416281627047000072
:1058F000F0B53C4A002011465E310C5E3A491388EF
:105900000A783A4F21E03A4D110149190918203916
:10591000097C384D4900695A0125AD02AB4201D1DD
:10592000002C02D05943891209192E4E4500403EE1
:10593000765B4E43B1122B4E1E36765F89190029D5
:1059400000DC0021401C7953C0B29042DBD3202AF6
:1059500007D2294803E05100521C7852D2B2202AC3
:10596000F9D3224A1F4C40329C34908C2546203D6E
:10597000002819D000204100635A002B2FD0194D68
:10598000401C7C35695A958CC0B269438D13CE1387
:10599000AD1949146D185900C9194039CB8F5B1BDB
:1059A000CB871028E7D31AE0D08C002817D000202E
:1059B0004100635A002B12D0695AD68C401C7143A7
:1059C0005E000A4B8F13F318403BDE8FC0B2F6190E
:1059D000CF13491479187118D9871028E8D300F02B
:1059E0004DF8F0BD280400208C0100203C0C002064
:1059F000ACCD00080007002049EE0000F0B5002300
:105A00001B49194A09781E461D461C461846174F61
:105A10008C460CE04100795A0C198B4201D20B469E
:105A200006468A4201D90A460546401CC0B2604576
:105A3000F0D310480F4980885E316043840A042007
:105A4000085E7D21C90048430B4920184843010CDA
:105A50000648761C403041810380991A42800181BA
:105A600086806D1CC580F0BDFF7F00003C0C0020CF
:105A70008C010020280400209819000005480178B6
:105A80000548418705490978818705490978C18713
:105A9000704700006E0200203C0C00206F020020C6
:105AA0007002002070B52348234A244B008801254A
:105AB00011467D24ED035E312401DB68A8420DD838
:105AC0005843800A0023A04215DDD28842430620B5
:105AD000085E7D21C900484310180DE001252D0402
:105AE000281A5843800A0123A04204DD1289424348
:105AF0000820085EEDE78002002800DC0020002579
:105B00000F4C002B07D0A5846421FCF7C0F980015D
:105B1000000CE08408E06421FCF7B9F98001000C76
:105B2000A084E584022800D8A584E08C022800D84F
:105B3000E58470BD4007002028040020F400002008
:105B40007C0C0020F8B53848384D00780A2804D875
:105B50000021062800D8E981298202270024344840
:105B600066003018008D0A21FCF787F93149283882
:105B70007118403149894A2241432E485E3030181D
:105B8000825E881881120A2041432848FF3140383C
:105B900030184C22913111524C3002F0E3FB641C5E
:105BA000E4B2BC42DBD3234E27224036F18AD243F3
:105BB000514334465E341622A25E1F48891889126A
:105BC0000A225143FF3191312983318B2722D2435D
:105BD00051431822A25E891889120A225143FF31CB
:105BE00091316983718B2722D24351431A22A25EDD
:105BF000891889120A225143FF319131A9838068A3
:105C00001146FCF744F9B18B283841431C20205E33
:105C1000081880120A214843FF309130E883034876
:105C20001E3002F09FFBF8BD8C0100207C0C002090
:105C300000070020E8030020BC03002010B500236B
:105C40000B4A0C4C19464800001940308089002846
:105C500005D0834200D20346824200D90246491C45
:105C6000C9B20929EFD3034840300384428410BDF0
:105C7000FF7F00003C0C002009E00B220221491E9E
:105C80000906090EFBD1521E1206120EF6D1401E55
:105C9000F3D2704770B504460D463148807A00282B
:105CA00002D0012859D157E0002D06D0012D17D080
:105CB000022D28D0032D4CD138E0002C07D0012C28
:105CC0000BD1284A9188106800F046FB06E0254A6F
:105CD0009188106800F03EFB00E000BF00BF39E093
:105CE000002C07D0012C0BD11E4A9189906800F03E
:105CF00033FB06E01B4A9189906800F02BFB00E023
:105D000000BF00BF26E0002C07D0012C0BD1154AA4
:105D1000918A106900F020FB06E0124A918A10690E
:105D200000F018FB00E000BF00BF13E0002C07D01C
:105D3000012C0BD10B4A918B906900F00DFB06E012
:105D4000084A918B906900F005FB00E000BF00BF9E
:105D500000E000BF00BF01E000E000BF00BF70BD79
:105D6000280D0020440D002010B50D4CA07A00280D
:105D700014D00C498878401CC0B288700A280DD312
:105D800000208870A07D4007C10F0120FEF7D0FEE3
:105D9000A07D0007C10F0220FEF7CAFE10BD000063
:105DA000280D00207C01002070B505460C46002D12
:105DB00000D170BD204602F009FB00BFF9E70000EA
:105DC00030B5BDB0842226496846FBF7BDFF2449A3
:105DD0004022843121A8FBF7B7FF21493022C4318A
:105DE00031A8FBF7B1FF002001221E4C1E4D0346D7
:105DF00092024100401C6252C0B26B522F28F8D36D
:105E00001A4A2F209070D370194C00206B46410025
:105E1000401C5D5AC0B265524128F8D31548D06085
:105E200040111061C0135061134C002021AB4100A0
:105E3000401C5D5AC0B265522028F8D30020C043F0
:105E4000D0610E4C002031AB4100401C5D5AC0B205
:105E500065521828F8D30A4810623DB030BD0000E2
:105E60004CCA0008E803002046040020040100207A
:105E700024050020FFFFFF3FE404002096060020D9
:105E8000FFFFFF0070B500200E4B024641005A5440
:105E9000C918401CC0B24A706428F7D30A4D0024C8
:105EA0007D262A70F60060008019002106F0ACFA09
:105EB000641CE4B2642CF6D34B202978000106F070
:105EC000A3FA70BDC707002084010020F8B50020A8
:105ED000204B214C214D024641005A5262526A52D7
:105EE0000021491CC9B20629FBD3401CC0B20A28B4
:105EF000F2D31B48002602701A4802701A4802703A
:105F00007700F81DFF30E15BF83006F07DFA1748A6
:105F1000E95B381806F078FA0020401CC0B2062869
:105F2000FBD3761CF6B20A2EEAD30E480178452040
:105F3000C00006F069FA0C4801780C48183006F0E9
:105F400063FAFFF79FFF05F0C3FD0949094806F012
:105F500031FAF8BDA6050020BA050020CE050020C4
:105F60002E0100202F01002030010020120200002D
:105F700038110000FC3F000010B5012000F06CF863
:105F8000002807D0012000F061F807480822417876
:105F900011434170022000F05FF8002802D0022077
:105FA00000F054F810BD0000F000002010B50820EB
:105FB00000F052F8002802D0082000F047F810BD89
:105FC00070B501263603304600F046F874006500CF
:105FD000002819D01A486421808AFBF74EFFFFF78A
:105FE0004BFE1848018AC9040BD4818AA943A943EE
:105FF000A143A14381821449012088700D2005F03E
:106000009BFD304600F022F8204600F025F80028DD
:1060100002D0204600F01AF80124A402204600F025
:106020001BF8002802D0204600F010F8284600F0A7
:1060300013F8002802D0284600F008F870BD0000D0
:10604000E4040020000400481E02002001494861C9
:106050007047000000040140034A014652690020D5
:106060000A4200D0012070470004014010B5837936
:1060700018490268002B26D00B6893430B604A68CE
:1060800003689A434A6002795218136804682343EC
:1060900013608A6803689A438A60CA6803689A43EF
:1060A000CA604279102A05D051180A680068024374
:1060B0000A6010BD8A6803681A438A60CA6800686B
:1060C0000243CA6010BD0079401801689143016025
:1060D00010BD0000000401400149C8607047000085
:1060E00000200240F0B50B2706463F04384600F07A
:1060F0005BF804280FD1084C206902252843206151
:1061000066612069402108432061384600F04CF860
:106110002169A9432161F0BD002002400849042003
:10612000CA68D20701D001207047CA68D20601D5DB
:1061300002207047C9684907FBD50320704700005B
:10614000002002400248016980221143016170472A
:1061500000200240F0B50B2706463F040D463846A6
:1061600000F022F804280CD1064C206901210843D4
:1061700020613580384600F017F821694908490048
:106180002161F0BD0020024004480169090603D5E1
:10619000034941600349416070470000002002400C
:1061A00023016745AB89EFCD00B50346FFF7B6FF86
:1061B00002E0FFF7B3FF5B1E012803D0002B00D1E4
:1061C000052000BD002BF4D1FAE7000010B5431EF6
:1061D0000021154A0C2B0AD813780A2B00D3117012
:1061E0001178124C4B00E052491C117010BD03464F
:1061F0000E3B0C2B0BD853780A2B00D351705178DF
:106200000A4C4B001434E052491C517010BD937875
:106210000A2B00D391709178044C4B002834E05243
:10622000491C917010BD00002E010020A605002021
:1062300010B5431E0021154A0C2B0AD8D3780A2B1F
:1062400000D3D170D178124C4B00E052491CD17070
:1062500010BD03460E3B0C2B0BD813790A2B00D331
:10626000117111790A4C4B001434E052491C117120
:1062700010BD53790A2B00D351715179044C4B0056
:106280002834E052491C517110BD00002E0100203D
:10629000E20500200088704770B50C460546FFF700
:1062A00073FF3420FFF718FF2846FFF71BFF042871
:1062B000FAD121462846FFF74DFF0446FFF742FF7B
:1062C000204670BDF0B50022032501230C689340E1
:1062D0001C409C422AD10C79012C01D0022C12D1F5
:1062E000876854002E46A640B74387604E79A64083
:1062F00084682643866084889C43848084888B7964
:1063000093401C438480066853002C469C40A6435F
:1063100006600E7907689E403E430660C668A64345
:10632000C660CC799C40C3681C43C460521C102AD0
:10633000CBD3F0BD4B07DB0E9A40C90810B58900DE
:106340000818016A0F249C40A1430162016A1143AD
:10635000016210BD018570478161704770B50546C7
:10636000094A502100F01EFB074A0446921C59219D
:10637000284600F017FB044A0419521C51212846F4
:1063800000F010FB001970BDFC0600200448054910
:10639000C08AFE220B681040934318430860704780
:1063A000280D0020380200200E490F4A087C507545
:1063B0000E488A7C0285CA7C42858A8A8285CA8A7E
:1063C000C2850A8B0286498B418609490A78D20622
:1063D00001D53C2202854978490701D50021018574
:1063E00070470000E40D00200E0D00207C0C002002
:1063F00030020020F7B584B0864605980025401E7F
:106400000126059F80B2BF1E2C46334629460290C6
:1064100001971BE04F0070460097C75BBC46009F8A
:1064200060467744BF88624501D3BA4203D96245CA
:1064300009D8BA4207D305464B00704618183E46A5
:106440004488C38804E0891C019F89B2B942E1DB1A
:106450000298401E814212DB0599704649000918D6
:10646000403903888C8FA34206D8A24202D3C88F3A
:1064700007B0F0BD4088FBE79A42FBD2F7E7AE4297
:1064800005D230462E460546184623460446A3420A
:10649000204610D319461B1B704369435A43884258
:1064A00002DB401A101801E0081A101A711BFBF7E2
:1064B000E4FC80B2DCE7194670436943E31A5A43AF
:1064C000401A801AF2E7F7B58CB0144600200A9003
:1064D00009900120089007900C9D0D98401E80B2F5
:1064E0000B90002721E07800285A0690B81C400045
:1064F000285A05900698844202DB0598844205DDFF
:10650000069884420FDC059884420CDB06980A90BA
:1065100005980890781C4000285A0990F81C400003
:10652000285A079005E0B81C87B20D98801EB84223
:10653000D9DC00BF0B98401EB84225DC0C9D288892
:1065400006900D98801E4000285A059005990698DF
:1065500088420BDC0598844205DB0D98401E400004
:10656000285A06900DE0688806900AE00698844252
:1065700002DB6888069004E00D98401E4000285A0F
:10658000069006980FB0F0BD0A990898884207D285
:10659000089E0A9808900A96079E099807900996FF
:1065A00009990798884227D3089909984843049085
:1065B0000A99079848430390264609990798401A74
:1065C00002900298464303990498884206DB039997
:1065D0000498401A01900198361805E00499039830
:1065E000401A01900198361A0A9A0898811A304682
:1065F000FBF743FC06461BE00899099848430490C2
:106600000A99079848430390264607990998401A23
:1066100002900298464303990498401A0190019809
:10662000861B0A9A0898811A3046FBF726FC064614
:10663000B0B2A7E710B500241D48C088002806D0D6
:1066400001280DD0022814D0032824D11AE01848BC
:10665000803002892A215238FFF735FFC4B223E087
:106660001348803002892A211248FFF72CFFC4B258
:106670001AE00F48803002892A210F48FFF723FFD4
:10668000C4B211E00A48803002892A210B48FFF782
:106690001AFFC4B208E00648803002892A21054862
:1066A000FFF711FFC4B200BF00BF204610BD0000BD
:1066B000640D0020C8CF00081CD0000870D000086E
:1066C000FEE7000010B51848007880062BD508209A
:1066D00005F0F2FA002826D014484078400622D56A
:1066E000134801780B0005F03BFF0504070A0D1065
:1066F000120000F09BF80AE000F06CF807E000F0F0
:106700001BF804E000F048F801E00121017009489D
:1067100040780922C007D206C00C918A01231B03CE
:1067200099430143918210BD300200201C020020D9
:106730006E0100203802002070B513481449458CC2
:106740001248002446888888124A0123B5420AD993
:10675000401C80B28880032808D98C8050789843E8
:1067600050700B7002E0002800D08C80064820306A
:10677000407EC40701D1800704D55078184350707B
:106780000320087070BD00007C0C002096060020DD
:106790006E010020380200200B48407EC10711D155
:1067A00080070FD40949C888401C80B2C8800A28D5
:1067B00008D90020C880064842785208520042702A
:1067C00004200870704700009C0C00206E0100201F
:1067D0003802002070B511481149458C0E88114AC5
:1067E0000123114CB5420BD8858C89888D4202D289
:1067F000C08C884204D35078184350700220207017
:1068000006482030407EC10701D1800704D550786A
:10681000184350700320207070BD00007C0C0020D5
:1068200096060020380200206E010020074808224A
:1068300001781143017006484178490849004170C8
:1068400002490120083908707047000076010020D5
:106850003C020020FFB585B06846017300201F464A
:10686000154600900190214C6B46012203A9059822
:1068700000F0C8F806467A0001AB2146059800F002
:1068800037F8304320D1059869464000401C087213
:10689000207848720722022102A8FEF75DFA61788B
:1068A000641C814210D120462038C07F2870012608
:1068B00015E0641C072201212046FEF74DFA61789D
:1068C000641C6D1C814205D00849FF20087001201E
:1068D00009B0F0BD20462038C07F2870761CBE422B
:1068E000E7DB0249FF2008700020F1E744070020A1
:1068F000FFB581B000200127274E3F0318601546E1
:106900000C46376000F03CFB03E03068411E31600C
:1069100031D30121C903214800F03DF90028F4D109
:10692000092080020090019801234100EAB25B0631
:106930001A48491C00F06EF900F022FB174F0FE0D7
:106940003068411E316016D30421384600F023F927
:106950000028F5D0384600F057F92070641C6D1EF1
:106960000F48002D3060EFD100F00AFB07E03168DE
:10697000491E316003D205F06DFA05B0F0BD20214B
:10698000384600F008F90028F1D02021384600F000
:10699000ECF80020F1E700007801002000580040EA
:1069A0000010000070B586B00646684601740020ED
:1069B0001546009001906B46012204A9304600F074
:1069C00021F8044601AB022202A93046FFF790FFEE
:1069D00020430ED170006946401C0873087A487342
:1069E0000722022103A8FEF7B7F96946497A8142D6
:1069F00002D0012006B070BD6846007A28700020E1
:106A0000F8E70000FFB50C460120314981B00003D2
:106A10001F4616460025086000F0B2FA06E02C4931
:106A20000868421E0A6001D23D6040E00121C903AE
:106A3000284800F0B0F80028F1D101204003009070
:106A4000019801234100F2B25B06224800F0E2F80F
:106A500000F096FA18E001211D480903016008E0E2
:106A60001B490868421E0A6003D2012119483D6093
:106A70001BE00221174800F08EF80028F0D02178A2
:106A8000144800F0C4F8641C761EE4D20120104CB7
:106A90000003206000F074FA0E4E0CE02068411EE6
:106AA000216008D2012130463D6000F06AF805F00F
:106AB000D1F905B0F0BD2021304600F06CF8002877
:106AC000ECD02021304600F050F800203D60F0E787
:106AD0007801002000580040FFB581B000200090F0
:106AE0000198154C4000207061701078A070154618
:106AF00020461F4607220321E41CFEF72DF92070D3
:106B000001260BE068786070641C07220121204692
:106B10006D1CFEF721F96070641C761CBE42F1DB2F
:106B2000054C7A006B46611C521C0198FFF76AFF06
:106B3000FF21217005B0F0BD940700201CB504466C
:106B40000020019060006B46187059709A700722FF
:106B500003216846FEF700F96B46D87001AB0322AB
:106B60002046D91EFFF74EFF1CBDC16170470029AA
:106B7000016802D00122114301E049084900016087
:106B80007047012292030029416801D0114300E0BF
:106B90009143416070470246926900200A4200D04A
:106BA0000120704710B50268520852000260026866
:106BB000134B8C681A4024024B6814432343036030
:106BC0000F230A681B069A430261026801231A43D5
:106BD000026000228260C2600B698A691A43826087
:106BE00082680123DB031A438260CA680368134387
:106BF00003604268034B49691A401143416010BD6C
:106C0000FFE0CF00FF7FFF07406AC0B2704781629C
:106C10007047000070B5049D44688905890D120411
:106C2000034E11431943344029432143416070BD51
:106C3000009800FC70B50E4C0825A08A2168A84376
:106C4000032212029143216021686A0111432160ED
:106C500010218843A082022005F0ACFCA08A2843C2
:106C6000A082022005F0A6FCA08AA843A08270BDE5
:106C70000004004870B50E4C0825A08A2168A8437E
:106C8000032212029143216021686A0111432160AD
:106C900010210843A082022005F08CFCA08A284322
:106CA000A082022005F086FCA08AA843A08270BDC5
:106CB00000040048F1B5164E002430680321090293
:106CC000884330603068306025460827B08AB84372
:106CD000B082022005F06EFCB08A3843B0826006B4
:106CE000040E308AC00601D5641CE4B2022005F00F
:106CF00061FC6D1CEDB2082DE8D30098002803D08C
:106D0000FFF798FF2046F8BDFFF7B4FFFAE7000051
:106D100000040048F8B5184E054630680321090202
:106D2000884330603068FF21013108433060B08A09
:106D30000827B843B0820024E809B08A02D01021A5
:106D4000084301E010218843B0826806050E022046
:106D500005F030FCB08A3843B082022005F02AFCEE
:106D6000B08AB843B082022005F024FC641CE4B26F
:106D7000082CE1D3F8BD00000004004870B50F4CAA
:106D8000206803210902884320602068FF21013127
:106D900008432060A08A1025284308263043A0829B
:106DA000022005F007FCA08AA843A082022005F07B
:106DB00001FCA08AB043A08270BD0000000400481E
:106DC00070B5104C206803210902884320602068B8
:106DD000FF21013108432060A08A0825A84310261E
:106DE000B043A082022005F0E5FBA08A2843A082E0
:106DF000022005F0DFFBA08A3043A082022005F0CC
:106E0000D9FB70BD0004004870B5124D00242868FD
:106E1000032109028843286028682860A88A082678
:106E20003043A882022005F0C5FB07E0641CE4B2F1
:106E3000FA2C03D9FFF7C4FF012070BD288AC006D1
:106E4000F4D4A88AB043A882022005F0B3FB002046
:106E500070BD00000004004810B50121480401F095
:106E600015FD0121880401F011FD0121C80401F084
:106E70000DFD0121880501F009FD0B48FBF792FE8D
:106E800000200922D206D060411E1160074AD0605E
:106E90001160074AD0601160064AD06011607D2001
:106EA000C00005F06BFB10BD002401400004004849
:106EB00000080048001400487CB5FFF7CDFF012012
:106EC000C003009001256846057100248471104EAE
:106ED000447169463046FFF7F5F9009881B23046B3
:106EE000FFF738FAE8020090684605718471447132
:106EF0000924E40669462046FFF7E4F90099204694
:106F000089B2FFF729FA00F02DF9FBF7B3FF7CBD3A
:106F1000000400487CB5FFF79FFF0120C0030090EC
:106F200001256846057100248471104E447169463C
:106F30003046FFF7C7F9009881B23046FFF70AFAEA
:106F4000E802009068460571847144710924E406E2
:106F500069462046FFF7B6F90099204689B2FFF747
:106F6000FBF900F0FFF8FBF785FF7CBD000400484B
:106F70000249014808607047CCCC00000030004056
:106F80000249014808607047AAAA0000003000408A
:106F900001494860704700000030004001498860A6
:106FA0007047000000300040014908607047000051
:106FB0000030004070B500F091F800F0ADF800F03E
:106FC0005BF800F015F8094C0020074B25460246F7
:106FD0000C3D41005A528100401C6250C0B26A50C0
:106FE0000328F6D370BD0000D4000020BC030020AD
:106FF00030B5012187B0480201F060FC1C4C2046EE
:10700000FBF7D0FD6846FBF728FE0021684600919B
:107010000171A015039080000491059102906946CA
:107020002046FBF7F5FDFF21052231312046FBF715
:1070300099FD01212046FBF701FE2046FBF7C2FD2A
:1070400001212046FBF793FD0A4D20462946FBF718
:10705000D0FD0028F9D002212046FBF79BFD01213D
:107060002046FBF78DFD2046FBF7F2FD07B030BD53
:10707000002401400100000110B501218CB0084638
:1070800001F004FC124C2046FEF7A6FB6846FEF712
:1070900021FC1048009010480190032003908020AC
:1070A000059000214000029106908000079020206A
:1070B0000491089000020A91099069462046FEF763
:1070C000EBFB01212046FEF77BFB0CB010BD00005E
:1070D0000800024040240140D40000207CB501217A
:1070E000480401F0D3FB3020009003256846057169
:1070F0000024C47109206946C006FFF7E3F80120A7
:10710000009068460571C47169460248FFF7DAF8D5
:107110007CBD0000000400483EB50121080401F0D8
:10712000CDFB7D20C00001900C480B490068FAF7A8
:10713000A4FE6946088000200881094C488020464A
:1071400004F0BCFE2021204604F0ABFE01212046C5
:1071500004F089FE3EBD0000A0860100C0000020B2
:107160000040014070B501218AB0880501F09AFB0A
:10717000002407941F48204D039402900594049422
:107180000694012108942846FFF7F1FC02A928463D
:10719000FFF708FD28150090022568460571447127
:1071A000164E847169463046FFF78CF8A8020090AD
:1071B000684605714471847169463046FFF782F86C
:1071C00001220A213046FFF7B5F801220B21304693
:1071D000FFF7B0F800F0DEFB082000F0BBFE00F087
:1071E000D9FB0123064A06210820FFF733FB0AB02A
:1071F00070BD00002B1D90000058004000040048A6
:107200007002002007480122C18F074881800A21AF
:10721000C180028100210180418004498181C181B6
:1072200082727047E4040020280D0020B80B000093
:1072300010B5154802F0B4F81449884202D101F0A3
:107240003DFF10BDFEF7BCFD114C01E004F0E6FF70
:10725000A078E168084321690843616908432178FF
:107260000843F3D160780028F0D1A0690028EDD15F
:10727000E0690028EAD1206A0028E7D1FEF726FE5F
:1072800005F02EF910BD0000FC3F00003811000091
:107290000401002010B51448144A018E1180418E5B
:1072A000518013499180018BD180818E9181C08E54
:1072B0005081002110468030C17001710D4C08468C
:1072C00041000B198918401C80B2CB811028F7D3DC
:1072D000094B002041005C5A8918401C80B2CC85C3
:1072E0002A28F7D310BD0000E4040020640D00201C
:1072F0008813000016030000BA0C00200F48016933
:107300000422914301610E480E4900680122401891
:107310000D4900280AD00D4BC0180BD00C4AD042A2
:1073200003D1062008700B48488270477D200A7000
:10733000C000F9E70A700848F6E7000000E000E046
:10734000C000002000EE85FF0802002000F7C2FF09
:1073500000AFDAFD70170000DC05000010B504F086
:1073600087FB00F0A3FD00F075FE00F081F9FFF748
:10737000C5FF00F031FC00F017FC00F0CFF8FFF77C
:10738000F1FE00F0A9F800F0FFFAFFF713FEFFF797
:1073900081FF00F0B9FD00F05BF900F0ABF900F0FF
:1073A00053FD00F09BFD10BD7CB504460D4616460E
:1073B000002E06D0012E08D0022E0AD0032E10D1A6
:1073C0000BE04148046085800CE03F488460858183
:1073D00008E03D480461858204E03B488461858380
:1073E00000E000BF00BF3949601A8C4221D00ADC9E
:1073F0003748201800280DD001218902401A0ED0EC
:10740000401A25D110E001218902401A16D0401AF5
:107410001ED118E00121480401F038FA19E00121D9
:10742000880401F033FA14E00121C80401F02EFAB7
:107430000FE00121080501F029FA0AE001214805C1
:1074400001F024FA05E00121880501F01FFA00E0AF
:1074500000BF00BF00950121684601710021417104
:10746000817169462046FEF72DFF29462046FEF72A
:1074700071FF1848807E0C2188431649887608469B
:10748000807E30218843134988760846807EC0215B
:107490008843104988760846C07E80088000C876F8
:1074A0000846C07E0C2188430A49C8760846C07E3B
:1074B000302188430749C8760846C07EC0218843EA
:1074C0000449C8767CBD0000440D0020000C004833
:1074D000000000B8280D00207CB518200090012580
:1074E00068460571002444710B4E8471694630462C
:1074F000FEF7E8FE18213046FEF72EFFE803009065
:10750000684605714471847109206946C006FEF71A
:10751000D9FEFFF78DFE7CBD00040048F0B5C3B076
:107520004022444902A8FAF70FFC42494022403168
:1075300012A8FAF709FC3F494022803132A8FAF735
:1075400003FC3C494022C03122A8FAF7FDFB182079
:10755000009001256846057100244471364E8471FF
:1075600069463046FEF7AEFE18213046FEF7F4FEBF
:10757000E8030090684605714471847109206946EA
:10758000C006FEF79FFE2D4801F00AFF2C498842F5
:107590004DD112AF32AE650022A82818808A01F0C2
:1075A0000BFFAA19E919928A898A904205D3884269
:1075B00003D82449691888820CE002A828182149B8
:1075C000808A691888822048C078002802D10E205D
:1075D00004F0B2FA641CA4B2022CDCD3194F0024CC
:1075E000650022A82818408F01F0E6FE12A9AA190A
:1075F0006918528F498F904204D3884202D8E91902
:1076000048870BE002A82818408FE91948870E48E0
:10761000C078002802D10E2004F08EFA641CA4B2B7
:10762000022CDDD309490120087143B0F0BD0748A1
:107630000471FAE734CC000800040048FC3F000065
:1076400038110000E40400200E0D00200401002089
:107650001CB501200003009001206946087100203C
:10766000487188710920C006FEF72CFE1CBD000081
:107670007CB50121480401F009F90121880401F0D9
:1076800005F90121C80401F001F90121080501F003
:10769000FDF80121480501F0F9F80121880501F004
:1076A000F5F81148009001256846057100244471E1
:1076B000847169460D48FEF705FEFF2003300090F7
:1076C000684605714471847109206946C006FEF759
:1076D000F9FD802000906846057144718471694607
